:020000040800F2
:100000000050002039310008C7300008CF30000808
:10001000D1300008D3300008D530000800000000BF
:10002000000000000000000000000000D7300008C1
:10003000D930000800000000DB300008DD30000887
:1000400081310008813100088131000881310008C8
:1000500081310008813100088131000881310008B8
:10006000813100088131000881310008E530000845
:100070008131000881310008813100088131000898
:100080008131000881310008F53000088131000815
:100090008131000881310008813100088131000878
:1000A00005310008153100082531000881310008AC
:1000B0008131000881310008813100088131000858
:1000C0008131000881310008813100088131000848
:1000D0008131000881310008813100088131000838
:1000E00081310008813100088131000800000000E2
:1000F0000000000000000000000000000000000000
:0C01000000000000000000005FF808F1A3
:10010C0081F0004102E000BF83F0004330B54FEABC
:10011C0041044FEA430594EA050F08BF90EA020F29
:10012C001FBF54EA000C55EA020C7FEA645C7FEABC
:10013C00655C00F0E2804FEA5454D4EB5555B8BFDF
:10014C006D420CDD2C4480EA020281EA030382EA50
:10015C00000083EA010180EA020281EA0303362DE2
:10016C0088BF30BD11F0004F4FEA01314FF4801CB5
:10017C004CEA113102D0404261EB410113F0004FC7
:10018C004FEA03334CEA133302D0524263EB43037E
:10019C0094EA050F00F0A780A4F10104D5F1200E1C
:1001AC000DDB02FA0EFC22FA05F2801841F1000177
:1001BC0003FA0EF2801843FA05F359410EE0A5F14B
:1001CC0020050EF1200E012A03FA0EFC28BF4CF07C
:1001DC00020C43FA05F3C01851EBE37101F0004532
:1001EC0007D54FF0000EDCF1000C7EEB00006EEB3F
:1001FC000101B1F5801F1BD3B1F5001F0CD34908C9
:10020C005FEA30004FEA3C0C04F101044FEA44521F
:10021C0012F5800F80F09A80BCF1004F08BF5FEAA6
:10022C00500C50F1000041EB045141EA050130BD86
:10023C005FEA4C0C404141EB0101013C28BFB1F598
:10024C00801FE9D291F0000F04BF01460020B1FAE3
:10025C0081F308BF2033A3F10B03B3F120020CDAB6
:10026C000C3208DD02F1140CC2F10C0201FA0CF094
:10027C0021FA02F10CE002F11402D8BFC2F1200CF9
:10028C0001FA02F120FA0CFCDCBF41EA0C019040AF
:10029C00E41AA2BF01EB0451294330BD6FEA0404F8
:1002AC001F3C1CDA0C340EDC04F11404C4F12002E3
:1002BC0020FA04F001FA02F340EA030021FA04F3F5
:1002CC0045EA030130BDC4F10C04C4F1200220FA4C
:1002DC0002F001FA04F340EA0300294630BD21FA8A
:1002EC0004F0294630BD94F0000F83F4801306BF50
:1002FC0081F480110134013D4EE77FEA645C18BF44
:10030C007FEA655C29D094EA050F08BF90EA020FDA
:10031C0005D054EA000C04BF1946104630BD91EAD2
:10032C00030F1EBF0021002030BD5FEA545C05D1D5
:10033C004000494128BF41F0004130BD14F5800414
:10034C003CBF01F5801130BD01F0004545F0FE4188
:10035C0041F470014FF0000030BD7FEA645C1ABFBD
:10036C00194610467FEA655C1CBF0B46024650EAF4
:10037C00013406BF52EA033591EA030F41F4002120
:10038C0030BD00BF90F0000F04BF0021704730B5A6
:10039C004FF4806404F132044FF000054FF000017B
:1003AC0050E700BF90F0000F04BF0021704730B53C
:1003BC004FF4806404F1320410F0004548BF404211
:1003CC004FF000013EE700BF42004FEAE2014FEA66
:1003DC0031014FEA02701FBF12F07F4393F07F4F41
:1003EC0081F06051704732F07F4208BF704793F044
:1003FC007F4F04BF41F40021704730B54FF4607457
:10040C0001F0004521F000411CE700BF50EA010259
:10041C0008BF704730B54FF000050AE050EA010202
:10042C0008BF704730B511F0004502D5404261EB72
:10043C0041014FF4806404F132045FEA915C3FF4B3
:10044C00D8AE4FF003025FEADC0C18BF03325FEA50
:10045C00DC0C18BF033202EBDC02C2F1200300FA01
:10046C0003FC20FA02F001FA03FE40EA0E0021FA26
:10047C0002F11444BDE600BF4FF0FF3C06E000BFA4
:10048C004FF0010C02E000BF4FF0010C4DF804CD11
:10049C004FEA410C7FEA6C5C4FEA430C18BF7FEAD1
:1004AC006C5C1BD001B050EA410C0CBF52EA430CFF
:1004BC0091EA030F02BF90EA020F0020704710F17F
:1004CC00000F91EA030F58BF994208BF90422CBF0E
:1004DC00D8176FEAE37040F0010070474FEA410C07
:1004EC007FEA6C5C02D150EA013C07D14FEA430C25
:1004FC007FEA6C5CD6D152EA033CD3D05DF8040B96
:10050C00704700BF8446104662468C4619466346C7
:10051C0000E000BF01B5FFF7B7FF002848BF10F19E
:10052C00000F01BD4DF808EDFFF7F4FF0CBF0120E3
:10053C0000205DF808FB00BF4DF808EDFFF7EAFF5F
:10054C0034BF012000205DF808FB00BF4DF808ED1A
:10055C00FFF7E0FF94BF012000205DF808FB00BF0F
:10056C004DF808EDFFF7CEFF94BF012000205DF899
:10057C0008FB00BF4DF808EDFFF7C4FF34BF0120A6
:10058C0000205DF808FB00BF0348044B834202D0F7
:10059C00034B03B1184770472800002028000020A7
:1005AC00000000000548064B1B1AD90F01EBA301F4
:1005BC00491002D0034B03B11847704728000020A4
:1005CC00280000200000000010B5064C237843B929
:1005DC00FFF7DAFF044B13B10448AFF3008001239B
:1005EC00237010BD2800002000000000DC31000842
:1005FC0008B5054B1BB105490548AFF30080BDE8B4
:10060C000840FFF7CFBF00BF000000002C00002007
:10061C00DC31000801230374704770B504468188EF
:10062C00006801F0BFFA051E14BF0126002602D196
:10063C00237C3BB10DB1237CB3B9237C03B915BB2F
:10064C00304670BD00F078FCA368C01A6428F1D95C
:10065C0001232374637C0BB90123E37400236374BB
:10066C0000F06AFCA060E5E700F066FCA368C01A25
:10067C006428E2D90023237400F05EFCA06000F033
:10068C005BFCE060D9E700F057FCE368C01AC728B0
:10069C00D6D9637C002BD3D10123637400F04CFCBE
:1006AC00E060CDE70346C07C00B970470022DA74E5
:1006BC00FBE700002DE9F04389B004AD002404945D
:1006CC000594069407942C4B9A6942F010029A6197
:1006DC009A6902F010020092009A9A6942F0200284
:1006EC009A619A6902F020020192019A9A6942F089
:1006FC0004029A619A6902F004020292029A9A69BF
:10070C0042F008029A619B6903F008030393039B70
:10071C00DFF8689022464FF40E51484601F049FA32
:10072C00174E22464FF40061304601F042FA4FF466
:10073C000E5304930127059706944FF00208CDF849
:10074C001C802946484601F023F94FF46443049376
:10075C00059406972946304601F01AF94FF40063C8
:10076C00049305970694CDF81C802946304601F079
:10077C000FF909B0BDE8F0830010024000100140F1
:10078C00000C014000B583B00A4B5A6942F00102DB
:10079C005A615B6903F001030193019B002211462E
:1007AC000B2000F09DFF0B2000F0AAFF03B05DF8BA
:1007BC0004FB00BF00100240A0EB010C0098C01A13
:1007CC0000FB0CFC521ABCFBF2FC0CEB0300704758
:1007DC002DE9F04182B04F4F3D78DFF83C814FF46A
:1007EC000051404601F0DEF9012814BF0026012615
:1007FC004FF48041404601F0D5F9012814BF002484
:10080C0001244FF40041404601F0CCF9012814BFFB
:10081C0000230123600040EA8300304338703F4CD2
:10082C00012221463E4800F031FD20883D4B1968DD
:10083C00884260D33C4B1B68984228BF184680B254
:10084C0040F6FB0300930023374A1268FFF7B4FF0E
:10085C00364B1880364B1B7813B9344B00221A8058
:10086C00344A138801339BB21380B3F59F7F19D997
:10087C00134600221A802D4B1F882F4B1E88BC1B41
:10088C0024B22046FFF78EFD21F0004100222B4BB5
:10089C00FFF75CFE002830D0274B1F80264B1888B2
:1008AC0000F0FEFA1B4B1878A84230D14FF40051DF
:1008BC00234801F084F901F0ADFA224C1C4B1A7854
:1008CC000121204601F07CFF184B1A88022120469A
:1008DC0001F076FF184B1A880321204601F070FFB7
:1008EC004AF655220421204601F06AFF01F098FADD
:1008FC0002B0BDE8F08188B2A2E7002C04DD082329
:10090C001E440D4B1E80C9E74FF6F873F8E700F054
:10091C00F9F9CBE74A000020000C01404800002008
:10092C00FC000020180000201400002046000020CD
:10093C00440000204C0000204E000020000020400D
:10094C00001001409800002072B6FEE700B585B09B
:10095C0000230193029303930F48104A02608360B3
:10096C00037303754FF46022C2614360012303617A
:10097C0000F050FD60B90023019301220292039311
:10098C0001A9054800F09EFB20B905B05DF804FBF9
:10099C00FFF7DAFFFFF7D8FFFC000020002401402E
:1009AC0010B596B0002412941394149415941094CA
:1009BC00119409940A940B940C940D940E940F9426
:1009CC002022214601A802F0D6FB3248324B0360AC
:1009DC004460846040F65F13C360046144618461C9
:1009EC0002F0D0F8002844D14FF48053129312A98E
:1009FC00284802F0C7F900283DD1264802F0EEF84D
:100A0C0000283AD100231093119310A9214802F029
:100A1C00F3FA002833D16023099300220A920B9237
:100A2C000C920D920E920F9209A91A4802F030F90D
:100A3C0038BB042209A9174802F02AF918BB08226E
:100A4C0009A9144802F024F9F8B900230193029380
:100A5C000393049305934FF400520692089301A953
:100A6C000C4802F0FFFA90B90A4801F0ABF916B045
:100A7C0010BDFFF769FFFFF767FFFFF765FFFFF793
:100A8C0063FFFFF761FFFFF75FFFFFF75DFFFFF706
:100A9C005BFF00BF50000020002C014008B5074848
:100AAC00074B03604FF0FF3343604FF48073836058
:100ABC0001F02EFE00B908BDFFF746FF980000209C
:100ACC000028004008B50648064B0360002343602D
:100ADC005023836001F07CF800B908BDFFF734FFA8
:100AEC00AC0000200030004010B594B00AAC2822B5
:100AFC000021204602F03FFB002305930693079349
:100B0C0008930993019302930393049309230A9383
:100B1C004FF480330B9301220E9210920222119209
:100B2C0012934FF4E0131393204601F095F9E8B9B2
:100B3C000F23059302210691002307934FF4806243
:100B4C000892099305A801F0BFFB88B90323019310
:100B5C004FF4007302934FF40043039301A801F088
:100B6C0091FC38B901F080FB14B010BDFFF7ECFE1E
:100B7C00FFF7EAFEFFF7E8FEF8B500F0BFF9FFF764
:100B8C00B3FFFFF797FDFFF7FDFDFFF7DFFEFFF764
:100B9C0007FFFFF797FFFFF781FF314C204600F06E
:100BAC00BDFC204600F0D4FC01222E49204600F06A
:100BBC006DFB2D4C0121204601F00AFE85B202216D
:100BCC00204601F005FE86B20321204601F000FE0E
:100BDC0087B20421204601F0FBFD83B24AF6552270
:100BEC00934218D02148FFF715FD214B1A784FF48A
:100BFC000061204800F0DDFF00F044F800F066F8DA
:100C0C00002000F04DF9012000F07CF800F04CF8C9
:100C1C00FFF758FF0EE0003D18BF0125144B1D7067
:100C2C00154B1E80154B1F80DCE7FFF78DFE0F4820
:100C3C00FFF7F3FC124800F0F9FF0028F5D10B4840
:100C4C00FFF730FD0028F2D0094B1A7882F0010230
:100C5C001A704FF40061074800F0ABFFE7E700BFE4
:100C6C00FC0000204800002098000020000000201C
:100C7C0044000020000C0140460000204E000020E3
:100C8C00AC00002010B5074C0021204602F072F990
:100C9C000421204602F06EF90821204602F06AF980
:100CAC0010BD00BF5000002010B5074C002120469D
:100CBC0002F0F6F80421204602F0F2F80821204652
:100CCC0002F0EEF810BD00BF5000002010B50B4B29
:100CDC00002159639963D96301221A64084C204698
:100CEC0002F0DEF80421204602F0DAF80821204652
:100CFC0002F0D6F8204601F01DFE10BD002C01407C
:100D0C005000002038B50138052823D8DFE800F062
:100D1C004383630323A3604D0021284602F02AF984
:100D2C005E4C01228021204600F043FF042128461E
:100D3C0002F020F900224FF48071204600F039FFB8
:100D4C000821284602F0ACF801224FF4007120462D
:100D5C0000F02FFF38BD504D0021284602F0A0F8BE
:100D6C004E4C01228021204600F023FF042128460E
:100D7C0002F000F900224FF48071204600F019FFB8
:100D8C000821284602F0F6F801224FF400712046A3
:100D9C0000F00FFFDEE7404D0021284602F080F8FE
:100DAC003E4C01228021204600F003FF04212846FE
:100DBC0002F0E0F801224FF48071204600F0F9FEB9
:100DCC000821284602F0D6F800224FF40071204684
:100DDC0000F0EFFEBEE7304D0021284602F0CAF8C5
:100DEC002E4C01228021204600F0E3FE04212846EF
:100DFC0002F056F801224FF48071204600F0D9FE23
:100E0C000821284602F0B6F800224FF40071204663
:100E1C0000F0CFFE9EE7204D0021284602F0AAF8F4
:100E2C001E4C00228021204600F0C3FE04212846DF
:100E3C0002F036F801224FF48071204600F0B9FE22
:100E4C000821284602F096F801224FF40071204642
:100E5C0000F0AFFE7EE7104D0021284602F08AF824
:100E6C000E4C00228021204600F0A3FE04212846CF
:100E7C0002F080F801224FF48071204600F099FEB8
:100E8C000821284602F00CF801224FF4007120468C
:100E9C0000F08FFE5EE700BF500000200010014004
:100EAC00024B58639863D863704700BF002C014015
:100EBC0010B504460E4B1A784FF47A73B3FBF2F369
:100ECC000C4A1068B0FBF3F000F028FC68B90F2C4A
:100EDC0001D901200AE0002221464FF0FF3000F03A
:100EEC00FFFB054B1C60002000E0012010BD00BF83
:100EFC001C000020240000202000002008B5074A18
:100F0C00136843F010031360032000F0D7FB0F208D
:100F1C00FFF7CEFF00F090FE002008BD002002403D
:100F2C00034A1168034B1B780B441360704700BFD6
:100F3C002C0100201C000020014B1868704700BFDA
:100F4C002C010020704708B5436A9A6A12F0500FC2
:100F5C001ED19A6A42F400729A621A68926802F47C
:100F6C006022B2F5602F03D01846FFF7EBFF08BDE7
:100F7C001A7B002AF8D19A6A22F480729A629A6AD1
:100F8C0012F4805FF0D19A6A42F001029A62EBE7A8
:100F9C001B6A1B6B9847EAE7704708B5406AFFF776
:100FAC00FBFF08BD704770B5044603681E685D689A
:100FBC0015F0200F17D016F0020F14D0826A12F021
:100FCC00100F03D1826A42F4007282629A6802F4B2
:100FDC006022B2F5602F33D02046FFF7B3FF2368B1
:100FEC006FF012021A6015F0800F22D016F0040F69
:100FFC001FD0A36A13F0100F03D1A36A43F400535C
:10100C00A3622268936803F4E043B3F5E04F2ED05B
:10101C00536813F4806F05D1936803F46023B3F520
:10102C00602F21D0204600F013FB23686FF00C02D8
:10103C001A6015F0400F02D016F0010F28D170BDC8
:10104C00227B002AC8D15A6822F020025A60A36A77
:10105C0023F48073A362A36A13F4805FBCD1A36AE8
:10106C0043F00103A362B7E7237B002BDAD153686B
:10107C0023F080035360A36A23F48053A362A36A12
:10108C0013F4807FCED1A36A43F00103A362C9E7B6
:10109C00A36A43F48033A3622046FFF783FF2368DF
:1010AC006FF001021A60CAE7704708B5406A836A9C
:1010BC0043F040038362C36A43F00403C362FFF747
:1010CC00F3FF08BD30B482B00022019290F82420C6
:1010DC00012A00F08F800346012280F824204A6800
:1010EC00062A2DD80468606B02EB8202053A4FF099
:1010FC001F0C0CFA02FC20EA0C000D6805FA02F237
:10110C00024362630A68092A38D91C68E06802EB5A
:10111C0042021E3A4FF0070C0CFA02FC20EA0C00BB
:10112C008D6805FA02F20243E2600A68103A012A5D
:10113C0034D90020002283F8242002B030BC704740
:10114C000C2A0DD80568286B02EB8202233A1F2467
:10115C00944020EA04000C68944020432863D1E7B3
:10116C000568E86A02EB8202413A1F24944020EAA7
:10117C0004000C6894402043E862C3E71C682069B3
:10118C0002EB42024FF0070C0CFA02FC20EA0C00B6
:10119C008D6805FA02F202432261C6E71A68164806
:1011AC00824205D09A6A42F020029A620120C1E77D
:1011BC00906810F4000F1BD1906840F40000906010
:1011CC000A68102A01D00020B4E70C4A12680C49B6
:1011DC00A1FB0212920C02EB82025200019202E07D
:1011EC00019A013A0192019A002AF9D10020A1E753
:1011FC0000209FE70220A0E70024014024000020EB
:10120C0083DE1B4330B583B00023019303689A68D7
:10121C0012F0010F33D104469A6842F001029A6031
:10122C00184B1B68184AA2FB03239B0C019302E08A
:10123C00019B013B0193019B002BF9D1FFF77CFE35
:10124C00054623689B6813F0010F16D1FFF774FE57
:10125C00431B022BF5D923689B6813F0010FF0D1C7
:10126C00A36A43F01003A362E36A43F00103E36251
:10127C00002384F82430012002E0002000E000204C
:10128C0003B030BD2400002083DE1B43F8B50446B8
:10129C000D46164601684448814259D0434B994249
:1012AC0056D094F82430012B7CD0012384F82430C0
:1012BC002046FFF7A7FF074600286ED1A16A21F44C
:1012CC00706121F0010141F48071A1622268374BF9
:1012DC009A4244D0A36A23F48013A362536813F494
:1012EC00806F05D0A36A23F4405343F48053A36268
:1012FC00A36A13F4805F48D0E36A23F00603E36229
:10130C00002384F82430236A294A9A62236A294AE2
:10131C00DA62236A284A1A6323686FF002021A60A1
:10132C002268936843F480739360216833462A469D
:10133C004C31206A00F050FA23689A6802F460225B
:10134C00B2F5602F24D09A6842F480129A6027E09C
:10135C00154B5B6813F4702FA3D0012720E0A3F585
:10136C0080635B6813F4702FB4D0A36A43F48013CA
:10137C00A3620D4B5B6813F4806FB9D0A36A23F49E
:10138C00405343F48053A362B2E70023E362B7E710
:10139C009A6842F4A0029A6002E0002384F8243098
:1013AC003846F8BD0227FBE7002401400028014025
:1013BC00530F0008A70F0008B710000838B50368D2
:1013CC009A6812F0010F01D1002038BD04469A68CA
:1013DC0022F001029A60FFF7AFFD054623689B6877
:1013EC0013F0010F13D0FFF7A7FD431B022BF5D908
:1013FC0023689B6813F0010FF0D0A36A43F010032D
:10140C00A362E36A43F00103E3620120DDE70020FD
:10141C00DBE7000000287BD070B50446836A002B04
:10142C004DD02046FFF7CAFFA36A13F0100369D111
:10143C00002867D1A26A22F4885222F0020242F0FC
:10144C000202A2626268E1690A43217B42EA41021C
:10145C00A568B5F5807F02D0012D36D01D46267DBE
:10146C00012E35D02668716821F4694129437160D9
:10147C002568AE68274931401143A960A168B1F5D0
:10148C00807F01D0012902D12369013B1B0525680E
:10149C00E96A21F470010B43EB62236899681E4BD7
:1014AC000B409A4225D0A36A23F0120343F0100399
:1014BC00A362E36A43F00103E362012027E0C36205
:1014CC0080F8243000F0DAFBABE74FF48075C6E708
:1014DC0031B9A169013945EA413141F40065C1E7EF
:1014EC00A16A41F02001A162E16A41F00101E162CF
:1014FC00B8E70023E362A36A23F0030343F001037C
:10150C00A36204E0A36A43F01003A362012070BD40
:10151C0001207047FDF7E1FFFE0E1FFF90F824300D
:10152C00012B13D010B50446012380F82430FFF7AB
:10153C0045FF38B9A36A23F4885323F0010343F021
:10154C000103A362002384F8243010BD02207047ED
:10155C0070B582B00023019390F82430012B72D027
:10156C000446012380F82430FFF728FF2046FFF7BC
:10157C0049FE054628B1002384F82430284602B0E1
:10158C0070BDA36A23F4885323F0020343F00203D3
:10159C00A3622E4B1E68022001F000F8B6FBF0F699
:1015AC007600019602E0019B013B0193019B002B0D
:1015BC00F9D12268936843F008039360FFF7BCFCF1
:1015CC00064623689A6812F0080F14D0FFF7B4FC93
:1015DC00801B0A28F5D923689B6813F0080FF0D0FC
:1015EC00A36A23F0120343F01003A362002384F8D0
:1015FC0024300125C2E79A6842F004029A60FFF792
:10160C009BFC064623689B6813F0040F14D0FFF76D
:10161C0093FC801B0A28F5D923689B6813F0040FF0
:10162C00F0D0A36A23F0120343F01003A36200234B
:10163C0084F824300125A1E7A36A23F0030343F0C7
:10164C000103A36297E7022598E700BF240000205E
:10165C0070470000002808DB0901C9B200F16040A6
:10166C0000F5614080F80013704700F00F0009018D
:10167C00C9B2014B1954704714ED00E000B500F0ED
:10168C000700C0F1070CBCF1040F28BF4FF0040C8D
:10169C00031D062B0FD9C31E4FF0FF3E0EFA0CF0A4
:1016AC0021EA000199400EFA03FE22EA0E0241EAF9
:1016BC0002005DF804FB0023EEE70000074AD36844
:1016CC0023F4E0631B041B0C000200F4E0600343F2
:1016DC0043F0BF6343F40033D360704700ED00E088
:1016EC0010B50446054BD868C0F30220FFF7C6FFBF
:1016FC0001462046FFF7AEFF10BD00BF00ED00E035
:10170C00002807DB00F01F02400901239340024A26
:10171C0042F82030704700BF00E100E00138B0F122
:10172C00807F0BD24FF0E0235861054AF02182F8FC
:10173C0023100020986107221A617047012070471E
:10174C0000ED00E030B40124056CAC40C56B6C605E
:10175C00046863604368102B05D0036899600368C4
:10176C00DA6030BC704703689A600368D960F8E7A8
:10177C0050B310B402460168144B0B441448A0FB40
:10178C0003031B099B001364124BD363022382F8DF
:10179C00213008686FF30D10536894682343D468A4
:1017AC002343146923435469234394692343D46921
:1017BC00234303430B6000209063012382F8213004
:1017CC0082F8200010BC704701207047F8FFFDBF65
:1017DC00CDCCCCCC0000024038B5044690F82000AB
:1017EC00012831D0012084F8200094F82100012830
:1017FC0004D0002384F82030022038BD022084F865
:10180C0021000020A0632568286820F001002860D2
:10181C002046FFF797FFE36A5BB12268136843F039
:10182C000E0313602268136843F001031360002059
:10183C00E3E72268136823F004031360226813683B
:10184C0043F00A031360EDE70220D6E738B5C36B0B
:10185C001A6804682568016C04238B40134235D048
:10186C0015F0040F32D0236813F0200F03D1236836
:10187C0023F0040323600368434A934214D01432C8
:10188C00934218D01432934217D01432934217D08B
:10189C001432934217D01432934202D04FF080622C
:1018AC0003E04FF4800200E00422384B5A60C36A14
:1018BC0003B1984738BD4022F7E74FF48062F4E754
:1018CC004FF48042F1E74FF48022EEE702238B4085
:1018DC0013423CD015F0020F39D0236813F0200FBF
:1018EC0006D1236823F00A032360012380F82130FA
:1018FC000368254A934214D0143293421CD01432FC
:10190C0093421BD0143293421BD0143293421BD0FF
:10191C001432934202D04FF0007203E04FF40012E5
:10192C0000E00222194B5A60002380F82030836AB1
:10193C00002BBFD09847BDE72022F3E74FF400728D
:10194C00F0E74FF40052EDE74FF40032EAE70823DA
:10195C008B401342AED015F0080FABD0236823F0A8
:10196C000E032360026CC16B012303FA02F24A607E
:10197C00836380F82130002380F82030036B002B28
:10198C0098D0984796E700BF08000240000002403C
:10199C0070B582B00024A4469EE07C4DAB4214D0BE
:1019AC000CD8A5F58015AB420FD005F57025AB42D0
:1019BC000BD0A5F58015AB421FD106E0744DAB42A0
:1019CC0003D005F58035AB4217D18B68A3B1012B41
:1019DC000DD04261082410E0CC680EE0CC680434D1
:1019EC000BE0CC68083408E0CC680C3405E00261EC
:1019FC00082402E0002400E00424BEF1FF0F37D8D5
:101A0C0006464FEA8C0233680F25954023EA0503FE
:101A1C0004FA02F2134333604B6813F0805F59D021
:101A2C005C4B9A6942F001029A619B6903F00103D5
:101A3C000193019B4FEA9C02951C574B53F8256070
:101A4C000CF00305AD000F23AB4026EA0306534B05
:101A5C00984214D003F58063984279D003F58063E3
:101A6C00984277D003F58063984206D0042307E0B0
:101A7C00061DACF108029200C5E7032300E0002329
:101A8C00AB4033430232444D45F822304B6813F4DB
:101A9C00801F61D0424A936843EA0E0393604B68FF
:101AAC0013F4001F5ED03E4AD36843EA0E03D360A2
:101ABC004B6813F4003F5BD0394A536843EA0E037A
:101ACC0053604B6813F4803F58D0354A136843EA8F
:101ADC000E0313600CF1010C0B6833FA0CF253D0AB
:101AEC00012202FA0CF203EA020E32EA0303F1D1EC
:101AFC004B68122B3FF651AF122B3FF67EAF01A570
:101B0C0055F823F0D7190008E5190008EF1900085B
:101B1C00011A0008071A0008071A0008071A00081B
:101B2C00071A0008071A0008071A0008071A000805
:101B3C00071A0008071A0008071A0008071A0008F5
:101B4C00071A0008071A0008E9190008F519000817
:101B5C00012395E7022393E7114A936823EA0E03C6
:101B6C0093609CE70E4AD36823EA0E03D3609FE789
:101B7C000B4A536823EA0E035360A2E7084A136822
:101B8C0023EA0E031360A5E702B070BD000022101B
:101B9C00000031100010024000000140000801401C
:101BAC00000401408368194201D0012070470020D5
:101BBC0070470AB101617047090401617047C3683D
:101BCC0001EA030221EA030141EA02410161704783
:101BDC0050B338B5044603684CF6CC421A6003681F
:101BEC0045F255521A60036842685A60036882686D
:101BFC009A60FFF7A1F905462368DA6812F0030F23
:101C0C000DD0FFF799F9401B41F23C339842F3D9C0
:101C1C002368DB6813F0030FEED0032003E04AF6D1
:101C2C00AA221A60002038BD0120704703684AF6CA
:101C3C00AA221A600020704782B00E4B9A6942F0BB
:101C4C0001029A619A6902F001020092009ADA6923
:101C5C0042F08052DA61DB6903F080530193019BFF
:101C6C00054A536823F0E06343F00073536002B0FD
:101C7C00704700BF001002400000014010B586B054
:101C8C00002302930393049305930268214B9A4219
:101C9C0001D006B010BD044603F56C439A6942F4BA
:101CAC0000729A619A6902F400720092009A9A6921
:101CBC0042F004029A619B6903F004030193019BB7
:101CCC00012302930323039302A91348FFF760FE39
:101CDC001248134B03600023436083608022C26070
:101CEC004FF4807202614FF4806242618361C36180
:101CFC00FFF73EFD58B9094B23625C620022114686
:101D0C001220FFF7EDFC1220FFF7FAFCC1E7FEF7FB
:101D1C001BFEF0E70024014000080140B800002041
:101D2C000800024002680C4B9A4200D0704700B584
:101D3C0083B000F06FF8094BDA6942F00062DA61A7
:101D4C00DB6903F000630193019B054B0122C3F88F
:101D5C003C2403B05DF804FB002800400010024056
:101D6C00000042420268164B9A4200D0704700B500
:101D7C0083B003F564439A6942F400629A619B69EB
:101D8C0003F400630193019B002211461820FFF716
:101D9C00A7FC1820FFF7B4FC002211461920FFF70E
:101DAC009FFC1920FFF7ACFC002211461A20FFF70C
:101DBC0097FC1A20FFF7A4FC03B05DF804FB00BFEE
:101DCC00002C014000B587B00023029303930493C9
:101DDC00059302680D4B9A4202D007B05DF804FBE4
:101DEC0003F564439A6942F004029A619B6903F01B
:101DFC0004030193019B4FF4E063029302230393CA
:101E0C00059302A90248FFF7C3FDE6E7002C014049
:101E1C0000080140014B01221A62704700000E427B
:101E2C00014B00221A62704700000E4282B0084B30
:101E3C001B68084AA2FB03235B0A00FB03F3019314
:101E4C0000BF019B5A1E0192002BF9D102B07047C2
:101E5C0024000020D34D6210002800F0F18170B5F1
:101E6C0082B00446036813F0010F2CD0994B5B68C9
:101E7C0003F00C03042B1DD0964B5B6803F00C0392
:101E8C00082B12D06368B3F5803F41D0002B55D19D
:101E9C0003F1804303F504331A6822F480321A608C
:101EAC001A6822F480221A6037E08A4B5B6813F4BC
:101EBC00803FE7D0874B1B6813F4003F03D0636867
:101ECC00002B00F0BF81236813F0020F75D0814BFB
:101EDC005B6813F00C0F5FD07E4B5B6803F00C0358
:101EEC00082B54D02369002B00F08A807A4B0122F6
:101EFC001A60FFF721F80546764B1B6813F0020FAA
:101F0C0075D1FFF719F8401B0228F5D903209EE183
:101F1C00704A136843F480331360636843B3FFF76C
:101F2C000BF805466B4B1B6813F4003FCBD1FFF746
:101F3C0003F8401B6428F5D9032088E1B3F5A02FE2
:101F4C0009D0644B1A6822F480321A601A6822F4A1
:101F5C0080221A60E1E703F18043A3F53C331A6851
:101F6C0042F480221A601A6842F480321A60D4E774
:101F7C00FEF7E2FF0546574B1B6813F4003FA2D057
:101F8C00FEF7DAFF401B6428F5D903205FE1514BC3
:101F9C005B6813F4803FA5D14E4B1B6813F0020F06
:101FAC0003D02369012B40F04F814A4A136823F078
:101FBC00F803616943EAC1031360236813F0080F47
:101FCC0033D0A369002B5CD0434B0122C3F880248F
:101FDC00FEF7B2FF05463F4B5B6A13F0020F21D1AF
:101FEC00FEF7AAFF401B0228F5D903202FE1394A3E
:101FFC00136823F0F803616943EAC1031360DCE75B
:10200C00354B00221A60FEF797FF0546314B1B68D3
:10201C0013F0020FD1D0FEF78FFF401B0228F5D929
:10202C00032014E10120FFF701FF236813F0040FD4
:10203C0000F09680274BDB6913F0805F34D1254B81
:10204C00DA6942F08052DA61DB6903F08053019364
:10205C00019B0125214B1B6813F4807F26D0E3687C
:10206C00012B3DD0002B53D103F1804303F50433F6
:10207C001A6A22F001021A621A6A22F004021A6227
:10208C0033E0154B0022C3F88024FEF755FF0546BC
:10209C00104B5B6A13F0020FC7D0FEF74DFF401BCD
:1020AC000228F5D90320D2E00025D3E70B4A1368A8
:1020BC0043F480731360FEF73FFF0646074B1B6823
:1020CC0013F4807FCBD1FEF737FF801B6428F5D942
:1020DC000320BCE0001002400000424200700040AF
:1020EC005F4A136A43F001031362E36833B3FEF7EC
:1020FC0023FF06465A4B1B6A13F0020F2FD1FEF733
:10210C001BFF801B41F288339842F3D903209EE0D9
:10211C00052B09D0524B1A6A22F001021A621A6A74
:10212C0022F004021A62E0E74D4B1A6A42F00402F4
:10213C001A621A6A42F001021A62D6E7FEF7FCFE36
:10214C000646474B1B6A13F0020F08D0FEF7F4FE4D
:10215C00801B41F288339842F3D9032077E0E5B92C
:10216C00E369002B72D03E4A526802F00C02082A36
:10217C0056D0022B17D03B4B00221A66FEF7DCFE22
:10218C000446374B1B6813F0007F47D0FEF7D4FE94
:10219C00001B0228F5D9032059E0314AD36923F0FA
:1021AC008053D361DCE72F4B00221A66FEF7C4FE86
:1021BC0005462B4B1B6813F0007F06D0FEF7BCFEC8
:1021CC00401B0228F5D9032041E0236AB3F5803F78
:1021DC001AD023494B6823F47413226A606A0243B1
:1021EC0013434B601F4B01221A66FEF7A5FE0446F3
:1021FC001B4B1B6813F0007F0ED1FEF79DFE001BDE
:10220C000228F5D9032022E0154A536823F4003341
:10221C00A1680B435360DCE7002018E0002016E0B7
:10222C00012B16D00E4B5B6803F48031226A91426D
:10223C0011D103F47013626A93420ED1002006E0B0
:10224C0001207047012002E0012000E0002002B0D4
:10225C0070BD0120FBE70120F9E70120F7E700BF83
:10226C000010024000004242014B0122DA64704728
:10227C00000042420F4B5B6803F00C02082A01D0AD
:10228C000D487047C3F383420C49885C13F4803FBC
:10229C000BD0084B5B68C3F34043094AD35C064A36
:1022AC0002FB00F0B0FBF3F07047064B03FB00F0B1
:1022BC00704700BF0010024000127A00F83100088D
:1022CC00F431000800093D00002800F0A08070B532
:1022DC000D460446524B1B6803F007038B420BD28E
:1022EC004F4A136823F007030B431360136803F082
:1022FC0007038B4240F08D80236813F0020F17D038
:10230C0013F0040F04D0474A536843F4E06353605E
:10231C00236813F0080F04D0424A536843F4605307
:10232C005360404A536823F0F003A1680B43536099
:10233C00236813F0010F31D06368012B20D0022BDE
:10234C0025D0384A126812F0020F64D035494A6819
:10235C0022F0030213434B60FEF7EEFD0646314BB1
:10236C005B6803F00C036268B3EB820F16D0FEF7C8
:10237C00E3FD801B41F288339842F0D9032045E0FD
:10238C00284A126812F4003FE0D101203EE0254AB1
:10239C00126812F0007FD9D1012037E0204B1B6866
:1023AC0003F00703AB420AD91D4A136823F0070355
:1023BC002B431360136803F00703AB422DD1236842
:1023CC0013F0040F06D0174A536823F4E063E16856
:1023DC000B435360236813F0080F07D0114A53685E
:1023EC0023F46053216943EAC1035360FFF742FFB2
:1023FC000C4B5B68C3F303130B4AD35CD8400B4BF9
:10240C0018600B4B1868FEF753FD002070BD0120BF
:10241C0070470120FAE70120F8E70120F6E700BF3A
:10242C00002002400010024024320008240000204A
:10243C0020000020014B1868704700BF24000020CA
:10244C0008B5FFF7F7FF044B5B68C3F3C223034ADD
:10245C00D35CD84008BD00BF001002401C320008FD
:10246C007047000008B5064B9B6813F0800F00D135
:10247C0008BDFFF7F5FF024B80229A72F8E700BF08
:10248C000010024070B582B00446036813F0010FCF
:10249C0036D03F4BDB6913F0805F4AD13C4BDA6995
:1024AC0042F08052DA61DB6903F080530193019BA7
:1024BC000125384B1B6813F4807F3CD0344B1B6ACE
:1024CC0013F4407313D0626802F440729A420ED037
:1024DC002F4A136A23F440702F490126C1F8406437
:1024EC000026C1F84064106213F0010F37D1284A5E
:1024FC00136A23F4407361680B431362002D3FD1C0
:10250C00236813F0020F06D0214A536823F440438A
:10251C00A1680B435360236813F0100F35D01C4A8D
:10252C00536823F48003E1680B435360002002B02E
:10253C0070BD0025BDE7174A136843F48073136020
:10254C00FEF7FAFC0646134B1B6813F4807FB5D1DB
:10255C00FEF7F2FC801B6428F5D90320E7E7FEF7B1
:10256C00EBFC06460A4B1B6A13F0020FBFD1FEF7B9
:10257C00E3FC801B41F288339842F3D90320D6E761
:10258C00D36923F08053D361BAE70020CFE700BFB3
:10259C0000100240007000400000424208B50228C2
:1025AC004ED0102803D0012828D0002052E02B4B0D
:1025BC005A68186810F080704CD0C2F383432849D5
:1025CC00C85C12F4803F15D0244B5B68C3F34043C6
:1025DC00244AD25C244BB3FBF2F303FB00F01F4BF9
:1025EC005B6813F4800F35D14000204BA3FB003007
:1025FC0040082FE01E4B03FB00F0F0E7174B1B6A63
:10260C0040F202321A40B2F5817F24D003F44073B9
:10261C00B3F5007F04D0B3F5407F09D0002019E05A
:10262C000E4A526A12F0020FF5D049F6404011E002
:10263C000A4B186810F400300CD04FF2244009E01B
:10264C00FFF7FEFE054B5B68C3F3813301335B0080
:10265C00B0FBF3F008BD4FF40040FBE70010024064
:10266C000C3200080832000800127A00ABAAAAAAA1
:10267C0000093D0038B50446FEF75EFC05462368AC
:10268C005A6812F0200F07D1FEF756FC401BB0F52C
:10269C007A7FF4D9032004E05A6842F010025A60A1
:1026AC00002038BD38B504460268536823F0100387
:1026BC005360FEF741FC054623685B6813F0200F5E
:1026CC0007D1FEF739FC401BB0F57A7FF4D9032013
:1026DC0000E0002038BDC0B138B50546026853682B
:1026EC0023F008035360FEF727FC04462B685B6855
:1026FC0013F0080F07D1FEF71FFC001BB0F57A7F13
:10270C00F4D9032000E0002038BD01207047000000
:10271C00002850D010B50446437C4BB1022363749F
:10272C002046FFF7D8FF38B104236374012010BD95
:10273C000374FFF7F7FAF1E72046FFF79BFF28BB7E
:10274C002268536823F007035360A36823B11B4A24
:10275C00136B23F001031363184AD36A23F46073D9
:10276C00A1680B43D3626368B3F1FF3F12D02268B8
:10277C00C3F30341916022689BB2D3602046FFF7FC
:10278C0091FF88B1042363740120D0E704236374A0
:10279C000120CCE70120FFF701FF08B1431EE6E75B
:1027AC00042363740120C2E70023E37301236373E2
:1027BC00A3736374BBE70120704700BF006C00403B
:1027CC00890001F1804101F5D84192B20A6070474D
:1027DC00890001F1804101F5D841086880B2704749
:1027EC0030B4026A036A23F001030362456883690B
:1027FC0023F073030C681C4322F002028B68134312
:10280C000B4A904206D0456084614A684263036279
:10281C0030BC704723F00803CA681A4322F0040343
:10282C0025F440754A692A438D691543EBE700BFCF
:10283C00002C014030B4036A026A22F480720262F6
:10284C004468C26922F073020D68154323F40073C7
:10285C008A6843EA02230D4A904206D04460C5615F
:10286C004A68C263036230BC704723F40063CA68D1
:10287C0043EA022323F4806324F440544A6944EA73
:10288C0002148A6944EA0214E8E700BF002C0140F4
:10289C0030B4036A026A22F4805202624468C2694C
:1028AC0022F4E6420D6842EA052223F400538D68B7
:1028BC0043EA0533074DA84206D04460C2614A681A
:1028CC000264036230BC704724F480444D6944EACE
:1028DC008514F2E7002C014010B4036A046A24F05A
:1028EC0001040462846924F0F00C4CEA021223F017
:1028FC000A030B438261036210BC704710B4036A75
:10290C00046A24F010040462846924F4704C4CEAC8
:10291C00023223F0A00343EA01138261036210BC6C
:10292C007047836823F070030B4343F00703836005
:10293C007047000090F83D30012B27D1022380F81E
:10294C003D300268D36843F00103D3600368114A39
:10295C00934210D0B3F1804F0DD0A2F59432934234
:10296C0009D002F58062934205D01A6842F0010248
:10297C001A60002070479A6802F00702062A07D0F6
:10298C001A6842F001021A6000207047012070475B
:10299C0000207047002C014070477047704770470B
:1029AC00704770B504460368DE681D6915F0020FA8
:1029BC0010D016F0020F0DD06FF002021A61012335
:1029CC00037703689B6913F0030F5ED0FFF7E6FFF4
:1029DC000023237715F0040F12D016F0040F0FD03C
:1029EC0023686FF004021A610223237723689B6922
:1029FC0013F4407F4FD02046FFF7D0FF00232377FE
:102A0C0015F0080F12D016F0080F0FD023686FF0D6
:102A1C0008021A61042323772368DB6913F0030F80
:102A2C0040D02046FFF7BAFF0023237715F0100F94
:102A3C0012D016F0100F0FD023686FF010021A612D
:102A4C00082323772368DB6913F4407F31D02046B9
:102A5C00FFF7A4FF0023237715F0010F02D016F027
:102A6C00010F2DD115F0800F02D016F0800F2FD151
:102A7C0015F0400F02D016F0400F31D115F0200F99
:102A8C0002D016F0200F33D170BDFFF786FF204621
:102A9C00FFF785FF9CE72046FFF77FFF2046FFF7F7
:102AAC007EFFABE72046FFF778FF2046FFF777FF66
:102ABC00BAE72046FFF771FF2046FFF770FFC9E722
:102ACC0023686FF001021A612046FDF781FEC9E709
:102ADC0023686FF080021A61204600F0EDFAC7E718
:102AEC0023686FF040021A612046FFF759FFC5E7D3
:102AFC0023686FF020021A61204600F0DCFAC3E76D
:102B0C0003681F4A90420AD0B0F1804F07D0A2F55B
:102B1C009432904203D002F58062904203D123F0AC
:102B2C0070034A681343164A90420AD0B0F1804FA2
:102B3C0007D0A2F59432904203D002F58062904205
:102B4C0003D123F44073CA68134323F080034A690A
:102B5C00134303608B68C3620B688362084B984213
:102B6C000AD001234361036913F0010F03D00369F9
:102B7C0023F00103036170470B690363F1E700BFA6
:102B8C00002C014040B310B5044690F83D30F3B131
:102B9C00022384F83D30214651F8040BFFF7B0FFB7
:102BAC00012384F8463084F83E3084F83F3084F8B2
:102BBC00403084F8413084F8423084F8433084F853
:102BCC00443084F8453084F83D30002010BD80F846
:102BDC003C30FFF7C7F8DBE70120704740B310B576
:102BEC00044690F83D30F3B1022384F83D30214681
:102BFC0051F8040BFFF784FF012384F8463084F866
:102C0C003E3084F83F3084F8403084F8413084F80A
:102C1C00423084F8433084F8443084F8453084F8EA
:102C2C003D30002010BD80F83C30FFF7B5FEDBE7EF
:102C3C000120704730B4036A026A22F0100202626B
:102C4C004468826922F4E6420D6842EA052223F0C8
:102C5C0020038D6843EA05130C4DA84206D044604E
:102C6C0082614A688263036230BC704723F0800340
:102C7C00CD6843EA051323F0400324F440644D6906
:102C8C0044EA85048D6944EA8504E8E7002C014098
:102C9C0038B590F83C30012B66D004460D46012324
:102CAC0080F83C300C2A5AD8DFE802F00759595901
:102CBC001B5959593059595944000068FFF790FD78
:102CCC002268936943F0080393612268936923F0A7
:102CDC00040393612268936929690B439361002073
:102CEC003EE00068FFF7A6FF2268936943F4006397
:102CFC0093612268936923F48063936122689369DA
:102D0C00296943EA01239361002029E00068FFF759
:102D1C0091FD2268D36943F00803D3612268D3691B
:102D2C0023F00403D3612268D36929690B43D3616F
:102D3C00002015E00068FFF7ABFD2268D36943F46F
:102D4C000063D3612268D36923F48063D361226862
:102D5C00D369296943EA0123D361002000E00120F3
:102D6C00002384F83C3038BD0220FCE710B48468A2
:102D7C0024F47F4C42EA03220A4342EA0C028260AA
:102D8C0010BC704790F83C30012B78D010B504463D
:102D9C00012380F83C30022380F83D3002689368B0
:102DAC0023F47F4323F0770393600B68602B4CD0A4
:102DBC0023D8402B54D011D8202B03D00AD80BB1D8
:102DCC00102B05D119462068FFF7ABFD002028E039
:102DDC00012026E0302BF5D0012022E0502B0AD127
:102DEC00CA6849680068FFF777FD50212068FFF733
:102DFC0098FD002015E0012013E0B3F5805F3AD078
:102E0C00B3F5005F14D0702B37D1CB684A68896852
:102E1C000068FFF7ABFF2268936843F07703936079
:102E2C000020012384F83D30002384F83C3010BD91
:102E3C00CB684A6889680068FFF798FF2268936836
:102E4C0043F4804393600020EBE7CA68496800684C
:102E5C00FFF754FD60212068FFF763FD0020E0E7D9
:102E6C00CA6849680068FFF737FD40212068FFF702
:102E7C0058FD0020D5E70020D3E70120D1E7022040
:102E8C00704701F01F014FF0010C0CFA01FC036AB2
:102E9C0023EA0C030362036A8A40134303627047FC
:102EAC0010B50446084649BB94F83E30013B18BFA8
:102EBC000123002B58D1002836D1022384F83E3050
:102ECC00012201462068FFF7DCFF2368284A934261
:102EDC003AD02368264A93423BD0B3F1804F38D086
:102EEC00A2F59432934234D002F58062934230D0F2
:102EFC001A6842F001021A60002036E0042907D05B
:102F0C0008290BD094F84130013B18BF0123D0E7BE
:102F1C0094F83F30013B18BF0123CAE794F84030C6
:102F2C00013B18BF0123C4E7042805D0082807D0AB
:102F3C00022384F84130C3E7022384F83F30BFE713
:102F4C00022384F84030BBE75A6C42F400425A64C6
:102F5C00BFE79A6802F00702062A07D01A6842F007
:102F6C0001021A60002000E0012010BD0020FCE7E7
:102F7C00002C014038B504460D4600220068FFF7CE
:102F8C0080FF23681B4A934214D02368196A41F2CC
:102F9C001112114208D1196A40F24442114203D174
:102FAC001A6822F001021A609DB9012384F83E30A0
:102FBC00002038BD196A41F211121142E5D1196A8B
:102FCC0040F244421142E0D15A6C22F400425A645D
:102FDC00DBE7042D05D0082D07D0012384F8413000
:102FEC00E6E7012384F83F30E2E7012384F8403020
:102FFC00DEE700BF002C014090F83C20012A2CD0C9
:10300C0010B40346012280F83C20022280F83D20B7
:10301C0002685068946820F0700C086840EA0C0054
:10302C0050601A680E4882420AD0B2F1804F07D025
:10303C00A0F59430824203D000F58060824204D126
:10304C0024F08004496821439160012283F83D20DB
:10305C00002083F83C0010BC70470220704700BF72
:10306C00002C0140024690F83C30012B21D001236A
:10307C0080F83C30CB6823F440738868034323F416
:10308C0080634868034323F400630868034323F414
:10309C0080530869034323F400534869034323F422
:1030AC008043C9690B4311684B64002082F83C00D3
:1030BC007047022070477047704708B5FFF7D2F988
:1030CC00FEE7FEE7FEE7FEE7FEE770477047704756
:1030DC0008B5FDF725FF08BD08B50248FEF7B6FB9D
:1030EC0008BD00BFB800002008B50248FDF75BFF23
:1030FC0008BD00BFFC00002008B50248FFF751FCDA
:10310C0008BD00BF5000002008B50248FFF749FC7D
:10311C0008BD00BF5000002008B50248FFF741FC75
:10312C0008BD00BF5000002070470000FFF7FCFFF7
:10313C000B480C490C4A002302E0D458C450043309
:10314C00C4188C42F9D3094A094C002301E01360DE
:10315C000432A242FBD300F017F8FDF70DFD7047C7
:10316C0000000020280000203C320008280000202D
:10317C0030010020FEE703460244934200D1704721
:10318C0003F8011BF9E7000070B500260C4D0D4B40
:10319C005B1B9C10A64209D1002600F019F80A4DC1
:1031AC000A4B5B1B9C10A64205D170BD55F8043B25
:1031BC0098470136EEE755F8043B98470136F2E79D
:1031CC003432000834320008343200083832000837
:1031DC00F8B500BFF8BC08BC9E467047F8B500BFF8
:0831EC00F8BC08BC9E467047C8
:1031F4000102000002030405060708090A0B0C0D6E
:103204000E0F10100102000002030405060708094E
:103214000A0B0C0D0E0F1010000000000102030435
:103224000000000000000000010203040607080972
:04323400FD0500088C
:04323800D5050008B0
:10323C00000C014000040100000000000000000030
:10324C0000000000EA0B0000B004000001000000C8
:08325C001000000000127A00CE
:040000050800313985
:00000001FF
